{
  "_format": "hh-sol-artifact-1",
  "contractName": "Level0Template",
  "sourceName": "contracts/level0.sol",
  "abi": [
    {
      "inputs": [],
      "name": "solution",
      "outputs": [
        {
          "internalType": "uint8",
          "name": "",
          "type": "uint8"
        }
      ],
      "stateMutability": "pure",
      "type": "function"
    }
  ],
  "bytecode": "0x608060405234801561001057600080fd5b5060b98061001f6000396000f3fe6080604052348015600f57600080fd5b506004361060285760003560e01c80634fb6025114602d575b600080fd5b60336047565b604051603e9190606a565b60405180910390f35b6000602a905090565b600060ff82169050919050565b6064816050565b82525050565b6000602082019050607d6000830184605d565b9291505056fea2646970667358221220b5fd820b76e10b8ffefc3432e254c99c0cf0c1e51a81e506517f61144b8122ae64736f6c63430008180033",
  "linkReferences": {},
  "deployedLinkReferences": {}
}