{"contracts/level0.sol":{"Level0Template":{"abi":[{"inputs":[],"name":"solution","outputs":[{"internalType":"uint8","name":"","type":"uint8"}],"stateMutability":"pure","type":"function"}],"evm":{"bytecode":{"linkReferences":{},"object":"608060405234801561001057600080fd5b5060b98061001f6000396000f3fe6080604052348015600f57600080fd5b506004361060285760003560e01c80634fb6025114602d575b600080fd5b60336047565b604051603e9190606a565b60405180910390f35b6000602a905090565b600060ff82169050919050565b6064816050565b82525050565b6000602082019050607d6000830184605d565b9291505056fea2646970667358221220b5fd820b76e10b8ffefc3432e254c99c0cf0c1e51a81e506517f61144b8122ae64736f6c63430008180033","opcodes":"PUSH1 0x80 PUSH1 0x40 MSTORE CALLVALUE DUP1 ISZERO PUSH2 0x10 JUMPI PUSH1 0x0 DUP1 REVERT JUMPDEST POP PUSH1 0xB9 DUP1 PUSH2 0x1F PUSH1 0x0 CODECOPY PUSH1 0x0 RETURN INVALID PUSH1 0x80 PUSH1 0x40 MSTORE CALLVALUE DUP1 ISZERO PUSH1 0xF JUMPI PUSH1 0x0 DUP1 REVERT JUMPDEST POP PUSH1 0x4 CALLDATASIZE LT PUSH1 0x28 JUMPI PUSH1 0x0 CALLDATALOAD PUSH1 0xE0 SHR DUP1 PUSH4 0x4FB60251 EQ PUSH1 0x2D JUMPI JUMPDEST PUSH1 0x0 DUP1 REVERT JUMPDEST PUSH1 0x33 PUSH1 0x47 JUMP JUMPDEST PUSH1 0x40 MLOAD PUSH1 0x3E SWAP2 SWAP1 PUSH1 0x6A JUMP JUMPDEST PUSH1 0x40 MLOAD DUP1 SWAP2 SUB SWAP1 RETURN JUMPDEST PUSH1 0x0 PUSH1 0x2A SWAP1 POP SWAP1 JUMP JUMPDEST PUSH1 0x0 PUSH1 0xFF DUP3 AND SWAP1 POP SWAP2 SWAP1 POP JUMP JUMPDEST PUSH1 0x64 DUP2 PUSH1 0x50 JUMP JUMPDEST DUP3 MSTORE POP POP JUMP JUMPDEST PUSH1 0x0 PUSH1 0x20 DUP3 ADD SWAP1 POP PUSH1 0x7D PUSH1 0x0 DUP4 ADD DUP5 PUSH1 0x5D JUMP JUMPDEST SWAP3 SWAP2 POP POP JUMP INVALID LOG2 PUSH5 0x6970667358 0x22 SLT KECCAK256 0xB5 REVERT DUP3 SIGNEXTEND PUSH23 0xE10B8FFEFC3432E254C99C0CF0C1E51A81E506517F6114 0x4B DUP2 0x22 0xAE PUSH5 0x736F6C6343 STOP ADDMOD XOR STOP CALLER "},"methodIdentifiers":{"solution()":"4fb60251"}}}}}